:020000040000fa
:080000000002040000000000f2
:020000040000fa
:100400002f0721000eff24000e01880000000000cd
:100410000c00070080302000010020000f000700c2
:10042000000020000000e000020032000000020096
:1004300000000000cc020200000000000040da00d2
:100440000000fe00000020000000e000020032007a
:10045000000020009001880000000600a102880032
:10046000800078000000eb001a003700e2804000b6
:1004700054a0b4009101ba00e280400054a0b4003e
:100480009102ba00e280400054a0b4000002eb00e8
:10049000472bde00f507b200a6018800602ce100c2
:1004a00008003a000049eb000201e80002003900b0
:1004b0003420ec0002f0a0008301e900f9ff3e00c7
:1004c000040037006128e100010032000082eb00e7
:1004d000040007001101ba000200e000e3ff3a0047
:1004e0000000060004d0a300e20f49001c00390000
:1004f000810278003549ba000201e80002003900a3
:100500003420ec0002f0a0008301e9000f0032006b
:100510002549ba000201e800020039003420ec004d
:1005200002f0a0008301e900080032000400e000ae
:100530000600320015c9ba000201e80002003900c5
:100540003420ec0002f0a0008301e9008180e80083
:1005500054a0b4000300e000e2ff3a0000000600ef
:100560009102ba00055978008301e900f7ff3200d3
:10057000c82ade00055978008301e900f3ff320044
:100580000400e000f1ff320011d9ba00eeff37009d
:080590000040da000000fe004b
:020000040000fa
:10000800c8020000c8020000c8020000c8020000c0
:10001800c8020000c8020000c8020000c8020000b0
:10002800c8020000c8020000c8020000c8020000a0
:10003800c8020000c8020000c8020000c802000090
:020000040000fa
:100598000000fa00020007000080fa0000000600d0
:1005a8000000fa0000d0bf0067f0b70001d0bf001c
:1005b80066f0b70002d0bf0069f0b70003d0bf00f3
:1005c80068f0b70005d0bf000080fb0050838800aa
:1005d80006d0bf006cf0b70007d0bf006df0b700c1
:1005e80008d0bf006ff0b70009d0bf006ef0b700a9
:1005f8000ad0bf0071f0b7000bd0bf0070f0b70091
:080608000080fa00000006006a
:020000040000fa
:10061000001000003e000000820000000001020007
:100620000304050006030800090908000000010092
:10063000000200000300040000050000060007009f
:10064000000800000900090000080000070007007a
:100650000006000005000400000300000200010085
:100660000025000035003600005799009078000002
:100670003e10000034000000800000000000000078
:00000001FF
